{
  "_format": "hh-sol-artifact-1",
  "contractName": "Election",
  "sourceName": "contracts/voting.sol",
  "abi": [
    {
      "anonymous": false,
      "inputs": [
        {
          "indexed": true,
          "internalType": "address",
          "name": "voter",
          "type": "address"
        },
        {
          "indexed": true,
          "internalType": "string",
          "name": "candidateId",
          "type": "string"
        }
      ],
      "name": "VoteCasted",
      "type": "event"
    },
    {
      "inputs": [
        {
          "internalType": "string",
          "name": "",
          "type": "string"
        }
      ],
      "name": "candidateVotes",
      "outputs": [
        {
          "internalType": "uint256",
          "name": "",
          "type": "uint256"
        }
      ],
      "stateMutability": "view",
      "type": "function"
    },
    {
      "inputs": [
        {
          "internalType": "string",
          "name": "_candidateId",
          "type": "string"
        }
      ],
      "name": "getVotes",
      "outputs": [
        {
          "internalType": "uint256",
          "name": "",
          "type": "uint256"
        }
      ],
      "stateMutability": "view",
      "type": "function"
    },
    {
      "inputs": [],
      "name": "hasUserVoted",
      "outputs": [
        {
          "internalType": "bool",
          "name": "",
          "type": "bool"
        }
      ],
      "stateMutability": "view",
      "type": "function"
    },
    {
      "inputs": [
        {
          "internalType": "address",
          "name": "",
          "type": "address"
        }
      ],
      "name": "hasVoted",
      "outputs": [
        {
          "internalType": "bool",
          "name": "",
          "type": "bool"
        }
      ],
      "stateMutability": "view",
      "type": "function"
    },
    {
      "inputs": [
        {
          "internalType": "string",
          "name": "_candidateId",
          "type": "string"
        }
      ],
      "name": "vote",
      "outputs": [],
      "stateMutability": "nonpayable",
      "type": "function"
    }
  ],
  "bytecode": "0x608060405234801561001057600080fd5b5061074a806100206000396000f3fe608060405234801561001057600080fd5b50600436106100565760003560e01c8062514d7a1461005b57806309eef43e1461008b578063805265e5146100bb57806397371c04146100eb578063fc36e15b14610109575b600080fd5b61007560048036038101906100709190610407565b610125565b6040516100829190610529565b60405180910390f35b6100a560048036038101906100a091906103de565b610153565b6040516100b291906104ee565b60405180910390f35b6100d560048036038101906100d09190610407565b610173565b6040516100e29190610529565b60405180910390f35b6100f361019b565b60405161010091906104ee565b60405180910390f35b610123600480360381019061011e9190610407565b6101ee565b005b6001818051602081018201805184825260208301602085012081835280955050505050506000915090505481565b60006020528060005260406000206000915054906101000a900460ff1681565b600060018260405161018591906104d7565b9081526020016040518091039020549050919050565b60008060003373ffffffffffffffffffffffffffffffffffffffff1673ffffffffffffffffffffffffffffffffffffffff16815260200190815260200160002060009054906101000a900460ff16905090565b6000803373ffffffffffffffffffffffffffffffffffffffff1673ffffffffffffffffffffffffffffffffffffffff16815260200190815260200160002060009054906101000a900460ff161561027a576040517f08c379a000000000000000000000000000000000000000000000000000000000815260040161027190610509565b60405180910390fd5b60016000803373ffffffffffffffffffffffffffffffffffffffff1673ffffffffffffffffffffffffffffffffffffffff16815260200190815260200160002060006101000a81548160ff0219169083151502179055506001816040516102e191906104d7565b9081526020016040518091039020600081548092919061030090610656565b91905055508060405161031391906104d7565b60405180910390203373ffffffffffffffffffffffffffffffffffffffff167fb7821d50dfbda5ea310faebbeac5217bc1bb0cabe463e76b80e48d11e57df09860405160405180910390a350565b600061037461036f84610575565b610544565b90508281526020810184848401111561038c57600080fd5b610397848285610614565b509392505050565b6000813590506103ae816106fd565b92915050565b600082601f8301126103c557600080fd5b81356103d5848260208601610361565b91505092915050565b6000602082840312156103f057600080fd5b60006103fe8482850161039f565b91505092915050565b60006020828403121561041957600080fd5b600082013567ffffffffffffffff81111561043357600080fd5b61043f848285016103b4565b91505092915050565b610451816105de565b82525050565b6000610462826105a5565b61046c81856105c1565b935061047c818560208601610623565b80840191505092915050565b60006104956016836105b0565b91507f596f75206861766520616c726561647920766f746564000000000000000000006000830152602082019050919050565b6104d18161060a565b82525050565b60006104e38284610457565b915081905092915050565b60006020820190506105036000830184610448565b92915050565b6000602082019050818103600083015261052281610488565b9050919050565b600060208201905061053e60008301846104c8565b92915050565b6000604051905081810181811067ffffffffffffffff8211171561056b5761056a6106ce565b5b8060405250919050565b600067ffffffffffffffff8211156105905761058f6106ce565b5b601f19601f8301169050602081019050919050565b600081519050919050565b600082825260208201905092915050565b600081905092915050565b60006105d7826105ea565b9050919050565b60008115159050919050565b600073ffffffffffffffffffffffffffffffffffffffff82169050919050565b6000819050919050565b82818337600083830152505050565b60005b83811015610641578082015181840152602081019050610626565b83811115610650576000848401525b50505050565b60006106618261060a565b91507fffffffffffffffffffffffffffffffffffffffffffffffffffffffffffffffff8214156106945761069361069f565b5b600182019050919050565b7f4e487b7100000000000000000000000000000000000000000000000000000000600052601160045260246000fd5b7f4e487b7100000000000000000000000000000000000000000000000000000000600052604160045260246000fd5b610706816105cc565b811461071157600080fd5b5056fea264697066735822122036c0c75171aa0d52e09d66fca150c7f5d9c535fc2635f59681d2b3651fa3d3e264736f6c63430008000033",
  "linkReferences": {},
  "deployedLinkReferences": {}
}