{
  "_format": "hh-sol-artifact-1",
  "contractName": "Election",
  "sourceName": "contracts/voting.sol",
  "abi": [
    {
      "anonymous": false,
      "inputs": [
        {
          "indexed": true,
          "internalType": "string",
          "name": "electionID",
          "type": "string"
        },
        {
          "indexed": true,
          "internalType": "string",
          "name": "voterID",
          "type": "string"
        },
        {
          "indexed": true,
          "internalType": "string",
          "name": "candidateId",
          "type": "string"
        }
      ],
      "name": "VoteCasted",
      "type": "event"
    },
    {
      "inputs": [
        {
          "internalType": "string",
          "name": "",
          "type": "string"
        },
        {
          "internalType": "string",
          "name": "",
          "type": "string"
        }
      ],
      "name": "candidateVotes",
      "outputs": [
        {
          "internalType": "uint256",
          "name": "",
          "type": "uint256"
        }
      ],
      "stateMutability": "view",
      "type": "function"
    },
    {
      "inputs": [
        {
          "internalType": "string",
          "name": "_electionID",
          "type": "string"
        },
        {
          "internalType": "string[]",
          "name": "_candidateIds",
          "type": "string[]"
        }
      ],
      "name": "getAllCandidateVotes",
      "outputs": [
        {
          "components": [
            {
              "internalType": "string",
              "name": "candidateId",
              "type": "string"
            },
            {
              "internalType": "uint256",
              "name": "votes",
              "type": "uint256"
            }
          ],
          "internalType": "struct Election.CandidateInfo[]",
          "name": "candidateVotesInfo",
          "type": "tuple[]"
        }
      ],
      "stateMutability": "view",
      "type": "function"
    },
    {
      "inputs": [
        {
          "internalType": "string",
          "name": "_electionID",
          "type": "string"
        },
        {
          "internalType": "string",
          "name": "_candidateId",
          "type": "string"
        }
      ],
      "name": "getVotes",
      "outputs": [
        {
          "internalType": "uint256",
          "name": "",
          "type": "uint256"
        }
      ],
      "stateMutability": "view",
      "type": "function"
    },
    {
      "inputs": [
        {
          "internalType": "string",
          "name": "_electionID",
          "type": "string"
        },
        {
          "internalType": "string",
          "name": "_voterID",
          "type": "string"
        }
      ],
      "name": "hasUserVoted",
      "outputs": [
        {
          "internalType": "bool",
          "name": "",
          "type": "bool"
        }
      ],
      "stateMutability": "view",
      "type": "function"
    },
    {
      "inputs": [
        {
          "internalType": "string",
          "name": "",
          "type": "string"
        },
        {
          "internalType": "string",
          "name": "",
          "type": "string"
        }
      ],
      "name": "hasVoted",
      "outputs": [
        {
          "internalType": "bool",
          "name": "",
          "type": "bool"
        }
      ],
      "stateMutability": "view",
      "type": "function"
    },
    {
      "inputs": [
        {
          "internalType": "string",
          "name": "_electionID",
          "type": "string"
        },
        {
          "internalType": "string",
          "name": "_voterID",
          "type": "string"
        },
        {
          "internalType": "string",
          "name": "_candidateId",
          "type": "string"
        }
      ],
      "name": "vote",
      "outputs": [],
      "stateMutability": "nonpayable",
      "type": "function"
    }
  ],
  "bytecode": "0x608060405234801561001057600080fd5b50610e25806100206000396000f3fe608060405234801561001057600080fd5b50600436106100615760003560e01c8062c306aa1461006657806366a038bb14610096578063735f670d146100c65780638fc4a307146100f657806395f59fe114610126578063ab4375a714610142575b600080fd5b610080600480360381019061007b919061088c565b610172565b60405161008d9190610bc6565b60405180910390f35b6100b060048036038101906100ab919061088c565b6101c3565b6040516100bd9190610b8b565b60405180910390f35b6100e060048036038101906100db919061088c565b61021e565b6040516100ed9190610b8b565b60405180910390f35b610110600480360381019061010b9190610820565b61026f565b60405161011d9190610b69565b60405180910390f35b610140600480360381019061013b91906108f8565b610530565b005b61015c6004803603810190610157919061088c565b6106d2565b6040516101699190610bc6565b60405180910390f35b60018280516020810182018051848252602083016020850120818352809550505050505081805160208101820180518482526020830160208501208183528095505050505050600091509150505481565b600082805160208101820180518482526020830160208501208183528095505050505050818051602081018201805184825260208301602085012081835280955050505050506000915091509054906101000a900460ff1681565b6000808360405161022f9190610b52565b90815260200160405180910390208260405161024b9190610b52565b908152602001604051809103902060009054906101000a900460ff16905092915050565b60606000825167ffffffffffffffff8111156102b4577f4e487b7100000000000000000000000000000000000000000000000000000000600052604160045260246000fd5b6040519080825280602002602001820160405280156102ed57816020015b6102da610717565b8152602001906001900390816102d25790505b5090506000805b8451811015610407576000858281518110610338577f4e487b7100000000000000000000000000000000000000000000000000000000600052603260045260246000fd5b6020026020010151905060006001886040516103549190610b52565b9081526020016040518091039020826040516103709190610b52565b908152602001604051809103902054905060008111156103f2576040518060400160405280838152602001828152508585815181106103d8577f4e487b7100000000000000000000000000000000000000000000000000000000600052603260045260246000fd5b602002602001018190525083806103ee90610d37565b9450505b505080806103ff90610d37565b9150506102f4565b508067ffffffffffffffff811115610448577f4e487b7100000000000000000000000000000000000000000000000000000000600052604160045260246000fd5b60405190808252806020026020018201604052801561048157816020015b61046e610717565b8152602001906001900390816104665790505b50925060005b81811015610527578281815181106104c8577f4e487b7100000000000000000000000000000000000000000000000000000000600052603260045260246000fd5b6020026020010151848281518110610509577f4e487b7100000000000000000000000000000000000000000000000000000000600052603260045260246000fd5b6020026020010181905250808061051f90610d37565b915050610487565b50505092915050565b82826000826040516105429190610b52565b90815260200160405180910390208160405161055e9190610b52565b908152602001604051809103902060009054906101000a900460ff16156105ba576040517f08c379a00000000000000000000000000000000000000000000000000000000081526004016105b190610ba6565b60405180910390fd5b60016000866040516105cc9190610b52565b9081526020016040518091039020856040516105e89190610b52565b908152602001604051809103902060006101000a81548160ff02191690831515021790555060018560405161061d9190610b52565b9081526020016040518091039020836040516106399190610b52565b9081526020016040518091039020600081548092919061065890610d37565b91905055508260405161066b9190610b52565b6040518091039020846040516106819190610b52565b6040518091039020866040516106979190610b52565b60405180910390207f55d6abdae2902a81f7b08dea88ada88d6ce858ae8ce1754c62b7dd2d8332d72260405160405180910390a45050505050565b60006001836040516106e49190610b52565b9081526020016040518091039020826040516107009190610b52565b908152602001604051809103902054905092915050565b604051806040016040528060608152602001600081525090565b600061074461073f84610c12565b610be1565b9050808382526020820190508260005b85811015610784578135850161076a88826107f6565b845260208401935060208301925050600181019050610754565b5050509392505050565b60006107a161079c84610c3e565b610be1565b9050828152602081018484840111156107b957600080fd5b6107c4848285610cf5565b509392505050565b600082601f8301126107dd57600080fd5b81356107ed848260208601610731565b91505092915050565b600082601f83011261080757600080fd5b813561081784826020860161078e565b91505092915050565b6000806040838503121561083357600080fd5b600083013567ffffffffffffffff81111561084d57600080fd5b610859858286016107f6565b925050602083013567ffffffffffffffff81111561087657600080fd5b610882858286016107cc565b9150509250929050565b6000806040838503121561089f57600080fd5b600083013567ffffffffffffffff8111156108b957600080fd5b6108c5858286016107f6565b925050602083013567ffffffffffffffff8111156108e257600080fd5b6108ee858286016107f6565b9150509250929050565b60008060006060848603121561090d57600080fd5b600084013567ffffffffffffffff81111561092757600080fd5b610933868287016107f6565b935050602084013567ffffffffffffffff81111561095057600080fd5b61095c868287016107f6565b925050604084013567ffffffffffffffff81111561097957600080fd5b610985868287016107f6565b9150509250925092565b600061099b8383610af7565b905092915050565b60006109ae82610c7e565b6109b88185610ca1565b9350836020820285016109ca85610c6e565b8060005b85811015610a0657848403895281516109e7858261098f565b94506109f283610c94565b925060208a019950506001810190506109ce565b50829750879550505050505092915050565b610a2181610cdf565b82525050565b6000610a3282610c89565b610a3c8185610cb2565b9350610a4c818560208601610d04565b610a5581610dde565b840191505092915050565b6000610a6b82610c89565b610a758185610cd4565b9350610a85818560208601610d04565b80840191505092915050565b6000610a9e602883610cc3565b91507f566f7465722068617320616c726561647920766f74656420696e20746869732060008301527f656c656374696f6e0000000000000000000000000000000000000000000000006020830152604082019050919050565b60006040830160008301518482036000860152610b148282610a27565b9150506020830151610b296020860182610b34565b508091505092915050565b610b3d81610ceb565b82525050565b610b4c81610ceb565b82525050565b6000610b5e8284610a60565b915081905092915050565b60006020820190508181036000830152610b8381846109a3565b905092915050565b6000602082019050610ba06000830184610a18565b92915050565b60006020820190508181036000830152610bbf81610a91565b9050919050565b6000602082019050610bdb6000830184610b43565b92915050565b6000604051905081810181811067ffffffffffffffff82111715610c0857610c07610daf565b5b8060405250919050565b600067ffffffffffffffff821115610c2d57610c2c610daf565b5b602082029050602081019050919050565b600067ffffffffffffffff821115610c5957610c58610daf565b5b601f19601f8301169050602081019050919050565b6000819050602082019050919050565b600081519050919050565b600081519050919050565b6000602082019050919050565b600082825260208201905092915050565b600082825260208201905092915050565b600082825260208201905092915050565b600081905092915050565b60008115159050919050565b6000819050919050565b82818337600083830152505050565b60005b83811015610d22578082015181840152602081019050610d07565b83811115610d31576000848401525b50505050565b6000610d4282610ceb565b91507fffffffffffffffffffffffffffffffffffffffffffffffffffffffffffffffff821415610d7557610d74610d80565b5b600182019050919050565b7f4e487b7100000000000000000000000000000000000000000000000000000000600052601160045260246000fd5b7f4e487b7100000000000000000000000000000000000000000000000000000000600052604160045260246000fd5b6000601f19601f830116905091905056fea26469706673582212202d9fcf30f32c6c0d3eb2fc75b64f79a09cef9822c6eb4318b8732fc9bd1bf7ad64736f6c63430008000033",
  "linkReferences": {},
  "deployedLinkReferences": {}
}