{
  "_format": "hh-sol-artifact-1",
  "contractName": "Election",
  "sourceName": "contracts/voting.sol",
  "abi": [
    {
      "anonymous": false,
      "inputs": [
        {
          "indexed": true,
          "internalType": "string",
          "name": "voterId",
          "type": "string"
        },
        {
          "indexed": true,
          "internalType": "string",
          "name": "candidateId",
          "type": "string"
        }
      ],
      "name": "VoteCasted",
      "type": "event"
    },
    {
      "inputs": [
        {
          "internalType": "string",
          "name": "_candidateId",
          "type": "string"
        },
        {
          "internalType": "string",
          "name": "_name",
          "type": "string"
        }
      ],
      "name": "addCandidate",
      "outputs": [],
      "stateMutability": "nonpayable",
      "type": "function"
    },
    {
      "inputs": [
        {
          "internalType": "string",
          "name": "",
          "type": "string"
        }
      ],
      "name": "candidates",
      "outputs": [
        {
          "internalType": "string",
          "name": "id",
          "type": "string"
        },
        {
          "internalType": "string",
          "name": "name",
          "type": "string"
        },
        {
          "internalType": "uint256",
          "name": "votes",
          "type": "uint256"
        }
      ],
      "stateMutability": "view",
      "type": "function"
    },
    {
      "inputs": [
        {
          "internalType": "string",
          "name": "_voterId",
          "type": "string"
        }
      ],
      "name": "getVoterVote",
      "outputs": [
        {
          "internalType": "bool",
          "name": "hasVoted",
          "type": "bool"
        },
        {
          "internalType": "string",
          "name": "votedFor",
          "type": "string"
        }
      ],
      "stateMutability": "view",
      "type": "function"
    },
    {
      "inputs": [
        {
          "internalType": "string",
          "name": "_candidateId",
          "type": "string"
        }
      ],
      "name": "getVotes",
      "outputs": [
        {
          "internalType": "uint256",
          "name": "",
          "type": "uint256"
        }
      ],
      "stateMutability": "view",
      "type": "function"
    },
    {
      "inputs": [
        {
          "internalType": "string",
          "name": "_voterId",
          "type": "string"
        }
      ],
      "name": "registerVoter",
      "outputs": [],
      "stateMutability": "nonpayable",
      "type": "function"
    },
    {
      "inputs": [
        {
          "internalType": "string",
          "name": "_voterId",
          "type": "string"
        },
        {
          "internalType": "string",
          "name": "_candidateId",
          "type": "string"
        }
      ],
      "name": "vote",
      "outputs": [],
      "stateMutability": "nonpayable",
      "type": "function"
    },
    {
      "inputs": [
        {
          "internalType": "string",
          "name": "",
          "type": "string"
        }
      ],
      "name": "voters",
      "outputs": [
        {
          "internalType": "bool",
          "name": "hasVoted",
          "type": "bool"
        },
        {
          "internalType": "bool",
          "name": "hasRegistered",
          "type": "bool"
        },
        {
          "internalType": "string",
          "name": "votedFor",
          "type": "string"
        }
      ],
      "stateMutability": "view",
      "type": "function"
    }
  ],
  "bytecode": "0x608060405234801561001057600080fd5b506110ba806100206000396000f3fe608060405234801561001057600080fd5b506004361061007d5760003560e01c80636428a4861161005b5780636428a48614610101578063805265e51461011d578063c5539cc21461014d578063e8d5940d1461017f5761007d565b806326541b561461008257806353fa2e641461009e5780635f0ac5f2146100d0575b600080fd5b61009c60048036038101906100979190610956565b61019b565b005b6100b860048036038101906100b391906109ce565b610212565b6040516100c793929190610ab1565b60405180910390f35b6100ea60048036038101906100e591906109ce565b6102f4565b6040516100f8929190610aef565b60405180910390f35b61011b600480360381019061011691906109ce565b6103c6565b005b610137600480360381019061013291906109ce565b610471565b6040516101449190610b38565b60405180910390f35b610167600480360381019061016291906109ce565b61049b565b60405161017693929190610b53565b60405180910390f35b61019960048036038101906101949190610956565b6105eb565b005b604051806060016040528083815260200182815260200160008152506000836040516101c79190610bd4565b908152602001604051809103902060008201518160000190816101ea9190610df7565b5060208201518160010190816102009190610df7565b50604082015181600201559050505050565b6001818051602081018201805184825260208301602085012081835280955050505050506000915090508060000160009054906101000a900460ff16908060000160019054906101000a900460ff169080600101805461027190610c1a565b80601f016020809104026020016040519081016040528092919081815260200182805461029d90610c1a565b80156102ea5780601f106102bf576101008083540402835291602001916102ea565b820191906000526020600020905b8154815290600101906020018083116102cd57829003601f168201915b5050505050905083565b60006060600060018460405161030a9190610bd4565b908152602001604051809103902090508060000160009054906101000a900460ff168160010180805461033c90610c1a565b80601f016020809104026020016040519081016040528092919081815260200182805461036890610c1a565b80156103b55780601f1061038a576101008083540402835291602001916103b5565b820191906000526020600020905b81548152906001019060200180831161039857829003601f168201915b505050505090509250925050915091565b6001816040516103d69190610bd4565b908152602001604051809103902060000160019054906101000a900460ff1615610435576040517f08c379a000000000000000000000000000000000000000000000000000000000815260040161042c90610f15565b60405180910390fd5b600180826040516104469190610bd4565b908152602001604051809103902060000160016101000a81548160ff02191690831515021790555050565b600080826040516104829190610bd4565b9081526020016040518091039020600201549050919050565b6000818051602081018201805184825260208301602085012081835280955050505050506000915090508060000180546104d490610c1a565b80601f016020809104026020016040519081016040528092919081815260200182805461050090610c1a565b801561054d5780601f106105225761010080835404028352916020019161054d565b820191906000526020600020905b81548152906001019060200180831161053057829003601f168201915b50505050509080600101805461056290610c1a565b80601f016020809104026020016040519081016040528092919081815260200182805461058e90610c1a565b80156105db5780601f106105b0576101008083540402835291602001916105db565b820191906000526020600020905b8154815290600101906020018083116105be57829003601f168201915b5050505050908060020154905083565b816001816040516105fc9190610bd4565b908152602001604051809103902060000160019054906101000a900460ff16801561065357506001816040516106329190610bd4565b908152602001604051809103902060000160009054906101000a900460ff16155b610692576040517f08c379a000000000000000000000000000000000000000000000000000000000815260040161068990610f81565b60405180910390fd5b6001836040516106a29190610bd4565b908152602001604051809103902060000160019054906101000a900460ff16610700576040517f08c379a00000000000000000000000000000000000000000000000000000000081526004016106f790610fed565b60405180910390fd5b600180846040516107119190610bd4565b908152602001604051809103902060000160006101000a81548160ff0219169083151502179055508160018460405161074a9190610bd4565b908152602001604051809103902060010190816107679190610df7565b506000826040516107789190610bd4565b9081526020016040518091039020600201600081548092919061079a9061103c565b9190505550816040516107ad9190610bd4565b6040518091039020836040516107c39190610bd4565b60405180910390207f791f7d5f0b0d6e798f239ccca607156ff12f293d6709379301dc1a27e520618160405160405180910390a3505050565b6000604051905090565b600080fd5b600080fd5b600080fd5b600080fd5b6000601f19601f8301169050919050565b7f4e487b7100000000000000000000000000000000000000000000000000000000600052604160045260246000fd5b6108638261081a565b810181811067ffffffffffffffff821117156108825761088161082b565b5b80604052505050565b60006108956107fc565b90506108a1828261085a565b919050565b600067ffffffffffffffff8211156108c1576108c061082b565b5b6108ca8261081a565b9050602081019050919050565b82818337600083830152505050565b60006108f96108f4846108a6565b61088b565b90508281526020810184848401111561091557610914610815565b5b6109208482856108d7565b509392505050565b600082601f83011261093d5761093c610810565b5b813561094d8482602086016108e6565b91505092915050565b6000806040838503121561096d5761096c610806565b5b600083013567ffffffffffffffff81111561098b5761098a61080b565b5b61099785828601610928565b925050602083013567ffffffffffffffff8111156109b8576109b761080b565b5b6109c485828601610928565b9150509250929050565b6000602082840312156109e4576109e3610806565b5b600082013567ffffffffffffffff811115610a0257610a0161080b565b5b610a0e84828501610928565b91505092915050565b60008115159050919050565b610a2c81610a17565b82525050565b600081519050919050565b600082825260208201905092915050565b60005b83811015610a6c578082015181840152602081019050610a51565b60008484015250505050565b6000610a8382610a32565b610a8d8185610a3d565b9350610a9d818560208601610a4e565b610aa68161081a565b840191505092915050565b6000606082019050610ac66000830186610a23565b610ad36020830185610a23565b8181036040830152610ae58184610a78565b9050949350505050565b6000604082019050610b046000830185610a23565b8181036020830152610b168184610a78565b90509392505050565b6000819050919050565b610b3281610b1f565b82525050565b6000602082019050610b4d6000830184610b29565b92915050565b60006060820190508181036000830152610b6d8186610a78565b90508181036020830152610b818185610a78565b9050610b906040830184610b29565b949350505050565b600081905092915050565b6000610bae82610a32565b610bb88185610b98565b9350610bc8818560208601610a4e565b80840191505092915050565b6000610be08284610ba3565b915081905092915050565b7f4e487b7100000000000000000000000000000000000000000000000000000000600052602260045260246000fd5b60006002820490506001821680610c3257607f821691505b602082108103610c4557610c44610beb565b5b50919050565b60008190508160005260206000209050919050565b60006020601f8301049050919050565b600082821b905092915050565b600060088302610cad7fffffffffffffffffffffffffffffffffffffffffffffffffffffffffffffffff82610c70565b610cb78683610c70565b95508019841693508086168417925050509392505050565b6000819050919050565b6000610cf4610cef610cea84610b1f565b610ccf565b610b1f565b9050919050565b6000819050919050565b610d0e83610cd9565b610d22610d1a82610cfb565b848454610c7d565b825550505050565b600090565b610d37610d2a565b610d42818484610d05565b505050565b5b81811015610d6657610d5b600082610d2f565b600181019050610d48565b5050565b601f821115610dab57610d7c81610c4b565b610d8584610c60565b81016020851015610d94578190505b610da8610da085610c60565b830182610d47565b50505b505050565b600082821c905092915050565b6000610dce60001984600802610db0565b1980831691505092915050565b6000610de78383610dbd565b9150826002028217905092915050565b610e0082610a32565b67ffffffffffffffff811115610e1957610e1861082b565b5b610e238254610c1a565b610e2e828285610d6a565b600060209050601f831160018114610e615760008415610e4f578287015190505b610e598582610ddb565b865550610ec1565b601f198416610e6f86610c4b565b60005b82811015610e9757848901518255600182019150602085019450602081019050610e72565b86831015610eb45784890151610eb0601f891682610dbd565b8355505b6001600288020188555050505b505050505050565b7f566f74657220616c726561647920726567697374657265640000000000000000600082015250565b6000610eff601883610a3d565b9150610f0a82610ec9565b602082019050919050565b60006020820190508181036000830152610f2e81610ef2565b9050919050565b7f566f7465722068617320616c726561647920766f746564000000000000000000600082015250565b6000610f6b601783610a3d565b9150610f7682610f35565b602082019050919050565b60006020820190508181036000830152610f9a81610f5e565b9050919050565b7f566f746572206e6f742072656769737465726564000000000000000000000000600082015250565b6000610fd7601483610a3d565b9150610fe282610fa1565b602082019050919050565b6000602082019050818103600083015261100681610fca565b9050919050565b7f4e487b7100000000000000000000000000000000000000000000000000000000600052601160045260246000fd5b600061104782610b1f565b91507fffffffffffffffffffffffffffffffffffffffffffffffffffffffffffffffff82036110795761107861100d565b5b60018201905091905056fea26469706673582212204bdbec5ae1d66464968a79aafffd5a5796cb94f19d204ef4fe3f04bed59b315764736f6c63430008130033",
  "linkReferences": {},
  "deployedLinkReferences": {}
}